:020000021000EC
:10000000E03F082095010100FB000100E100010034
:10001000090101001901010029010100000000008F
:10002000000000000000000000000000710A010054
:100030003901010000000000D10A0100590101004E
:100040005106010051060100510601005106010050
:100050005106010051060100510601005106010040
:100060005106010051060100510601005106010030
:100070005106010051060100510601005106010020
:100080005106010051060100510601005106010010
:100090005106010051060100510601005106010000
:1000A00051060100510601005106010051060100F0
:1000B00051060100510601005106010051060100E0
:1000C000510601005106010051060100D40D020045
:1000D00000C00720FC02000000C30720B00500009C
:1000E00004207146084203D0EFF3098000F0CEBA35
:1000F000EFF3088000F0CABA704708B5014802F073
:1001000079FDFEE77AF9010008B5024802F072FDB8
:10011000FEE700BF85F9010008B5024802F06AFD5C
:10012000FEE700BF90F9010008B5024802F062FD49
:10013000FEE700BF9BF9010008B5024802F05AFD36
:10014000FEE700BFA8F9010008B5024802F052FD21
:10015000FEE700BFB6F9010008B501F045FC00F06C
:10016000D9FCBDE8084001F053BC0B4610B5401A5D
:100170005C1AA24203D9C45843F8044BF8E710BDF7
:100180000346002210B51C1AA14202D943F8042BE1
:10019000F9E710BD154800F033F8144800F033F8C3
:1001A000134C144DAC4209D3134DAC420ED254F84B
:1001B000080B54F8041CFFF7E3FFF6E794E803008C
:1001C0000C3454F8042CFFF7D0FFEBE709F0A0F84B
:1001D00000F026F806F0DEFE07F00AFD4FF41640A8
:1001E00000F074FB054802F005FDFEE7E03F082043
:1001F000CC000100D8000100E0000100CAF90100B4
:1002000080F30988704780F30888704780F311886D
:100210007047FFFF014B1878704700BF0CC30720E1
:1002200030B585B002F0D0F9684602F075F9774C28
:10023000009B2360019B6360029BA36000F098FA1F
:1002400000F0F0FA724BB0FBF3F03C28714B00F277
:100250009A80292880F0A180142800F29B803A22FD
:100260001A60082398226C4900200B764B768B7617
:1002700081F82030694B83F8052383F8062383F83F
:10028000072383F80823902283F80A2383F80B239B
:1002900083F80C23702283F80E2383F80F2358224F
:1002A00083F8122383F8132383F8142383F8152388
:1002B000782283F81923A02283F8002383F80123EE
:1002C00083F8022383F8032383F8042383F80923A4
:1002D00083F80D2383F8102383F8112383F8162362
:1002E00083F8172383F8182383F81A2383F81B2332
:1002F00083F81C2383F81E2383F81F2383F820230D
:1003000083F81D2383F8212383F82223CB6823F469
:10031000E0631B041B0C43F0BF6343F40033CB606A
:10032000FFF774FF61B662B64FF4164000F0CEFAE4
:100330003B4807F0E1F93B4807F0E4F900233A4C69
:1003400019462068022280680AF032FC00232068E7
:10035000304C1946022240680AF02AFC07F0ECF9FA
:10036000D4F88031314D13F0010F1FD0304800F028
:10037000F5FA01232B70D4F8803143F00103C4F85F
:10038000803105B030BD50280AD964280BD945F218
:100390003A0265E741F23A0262E742F23A025FE767
:1003A00043F23A025CE744F23A0259E7D4F880316A
:1003B0009B0709D51F4800F0D1FA02232B70D4F80F
:1003C000803143F00203DAE7D4F8803113F00403FC
:1003D00019D0194B9A6C194B9A4208D10523184829
:1003E0002B7000F0BBFA0022134B9A64C9E7042378
:1003F00014482B7000F0B2FAD4F8803143F00403B3
:10040000C4F88031EFE72B70BBE700BF00C30720C3
:1004100040420F0000C00F4000ED00E000E100E0AE
:10042000450901002D090100E0C007200CC3072089
:1004300000F8010043F8010000400240EFBEADDECD
:100440001DF801003AF8010038B50D46044600F0E9
:1004500021FB094A01234DB1D2F8C400A340034354
:10046000C2F8C430BDE8384000F024BBD2F8C41054
:10047000A34021EA0303F3E700C00F402DE9F04158
:100480004FEA40080E4600F005FB424603200021DB
:1004900007F048FF0A4F4246D7E9004524EA000426
:1004A00025EA010506F00300002107F03BFF204389
:1004B0002943C7E90001BDE8F04100F0FBBA00BFE5
:1004C000A8C10F40012110B50F4B104C0846236006
:1004D00001F0ECFF4FF0FF3223689A614FF47A721B
:1004E000DA6100221A620A4A5A6240F209225A610B
:1004F0005A6942F040025A611822064B83F80223DF
:1005000004221A6010BD00BF0080004018C30720FD
:1005100060E3160000E100E0084B10B51B68084CD2
:100520009A682188986889B28242F9D80B460022DD
:1005300042EA00021046194610BD00BF18C307204A
:1005400014C3072010B504468EB006A807F012F8B1
:100550000A9B069A05930B9B074904930C9B204624
:1005600003930D9B0293099B0193089B0093079BA8
:100570000AF014FC0EB010BD7EF8010010B5044C5A
:1005800023681BB9012006F0EFFF2060206810BD32
:1005900010C3072038B52B4C236825461A6812F083
:1005A000100F0ED010221A60FFF7E8FF2368D96AF7
:1005B00005F08EFA2268936803F51C53103313621A
:1005C00038BD540707D504221A60FFF7D7FFBDE8EE
:1005D000384005F08BBAD00707D501221A601A4AB5
:1005E000138801339BB2138038BD910715D50222C1
:1005F0001A6001F05DF9022809D006F0BFFB2A68F5
:100600009368D1690B4403F57A73D36138BD2A68C6
:10061000536923F008035361F1E712070ED508224E
:10062000AA211A604FF080421172552111729A6806
:1006300002F5B71202F558725A6238BD03480AF043
:1006400087F9FEE718C3072014C307205DF80100EF
:1006500008B501F0C9F9094B094A1978094B103955
:10066000C9B253F82130934203D1074802F0D1FABE
:10067000FEE79847BDE8084001F0CAB904ED00E084
:100680004901010000C0072043F90100036888B058
:1006900000934368114A019383680293C3680393EC
:1006A000036904934369059383690693C3690793B8
:1006B0000B4B9A64069ADA64059A013A1A65079A0E
:1006C0005A654FF08043AA221A7200221A70009BCA
:1006D000019B029B039B049B08B07047EFBEADDEFD
:1006E00000400240AA22034BC3F88C205522C3F8D5
:1006F0008C20704700C00F402DE9F04F00240C60A3
:1007000014601C6040F2FF14DFF860A04FF4FA554B
:10071000002604FB055B06F1010CBBFBFCF8124F45
:10072000A8F58625A5F50E75BD421AD96646202E78
:10073000F1D1013C052CE9D10020BDE8F08FB9F5DD
:10074000807F4D46F2D005F10109B8FBF9FED64590
:10075000F5D886450C6016601D60F0D10120BDE81B
:10076000F08F0325EFE700BF38320400A0860100B8
:1007700030B500242A4985B0D1F8803004AD23F08B
:10078000020345F8044D01940294C1F88030FFF74C
:10079000A9FFD1F8803023F00103C1F88030FFF7C2
:1007A000A1FFC1F80C41C1F88440FFF79BFF2B4625
:1007B000C1F8044102AA01A94BF68030FFF79CFF63
:1007C00030B92B4602AA01A945F6C050FFF794FFA5
:1007D000019B134963F30F04029B63F31744002347
:1007E000C1F80C31C1F88440FFF77CFF0123C1F848
:1007F0008030FFF777FFD1F888305B01FBD5039B92
:10080000C1F804310323C1F88030FFF76BFF044ABD
:10081000D2F8883013F0407FFAD005B030BD00BF69
:1008200000C00F40244BD3F88820C2F30162032A92
:10083000D3F80C2102F003022DD1012A16D0022A8E
:100840001ED0D3F888101D48D3F88820D3F804317F
:10085000C1F30E0101FB0000C2F307420132B0FBFD
:10086000F2F0DBB20133B0FBF3F07047D3F888103D
:100870001348D3F88820C1F30E01D3F80431E9E717
:10088000D3F88800D3F88820C0F30E000130D3F8E5
:1008900004310004E0E7D3F80401012AC0B200F1FA
:1008A000010303D0022A03D00648DCE70648DAE752
:1008B0004FF40040D7E700BF00C00F4000127A009D
:1008C00000366E0100093D00001BB70010B504465C
:1008D000FFF7A8FF2401B0FBF4F007F071FE00223F
:1008E000104B07F031FD07F0E1FE012184B2032037
:1008F000FFF7AAFD01210320FFF7C0FD0A4B1A688C
:1009000022F0F0021A601A6842F050021A60802247
:10091000A3F500331A73220A1A710322E4B21C7081
:100920001A7310BD0000E03F00C00240034A136884
:10093000DB07FCD5024B1878704700BF14C000409D
:1009400000C00040034B044A187013685B06FCD5D6
:100950000120704700C0004014C0004008B5411E8F
:1009600011F8010F20B90A20BDE80840FFF7EABFDF
:10097000FFF7E8FFF4E710B5044600F0A5FD2046B8
:1009800008F060FD044600F033FE0CB900F02EF8CC
:10099000204610BD10B5044640B100F095FD20463C
:1009A00008F058FDBDE8104000F022BE10BD30BF79
:1009B0007047FFFF10B50C46094802F01BF92046AE
:1009C00002F018F9074802F015F9074802F055FA45
:1009D0004FF08043AA221A7200221A7010BD00BF85
:1009E00029FA010052FA0100C0C62D0008B50648D8
:1009F00002F000F9054802F040FA4FF08043AA22C5
:100A00001A7200221A7008BDF3F90100C0C62D0049
:100A10004FF0100383F31188BFF36F8FBFF34F8F35
:100A2000FEE7FFFF06480068006880F3088862B6AA
:100A300061B6BFF34F8FBFF36F8F00DF00BF0000C1
:100A400008ED00E04FF0807340F8043C054B21F0C6
:100A5000010140F8081C40F80C3C40F8202C4038BC
:100A6000704700BF110A0100FFFFFFFFFFFFFFFFFC
:100A7000074B19680868B0E8F00F80F30988BFF3E6
:100A80006F8F4FF0000080F311884EF00D0E70470D
:100A900028C307204FF0100383F31188BFF36F8F33
:100AA000BFF34F8F024A136801331360704700BFD2
:100AB0001CC30720034A1368013B13600BB983F37F
:100AC000118870471CC30720FFFFFFFFFFFFFFFFD8
:100AD000EFF30980BFF36F8F0D4B1A6820E9F00F19
:100AE00010602DE908404FF0100080F3118800F0ED
:100AF00003FE4FF0000080F31188BDE8084019683C
:100B00000868B0E8F00F80F30988BFF36F8F704773
:100B100028C3072008B54FF0100383F31188BFF3F3
:100B20006F8FBFF34F8F00F0DDFC18B14FF0805294
:100B3000024B1A60002383F3118808BD04ED00E026
:100B40004BF67F32024B1A60072243F8042C7047A1
:100B500014E000E008B5094B1A6842F478021A6004
:100B60001A6842F078421A60FFF7EAFF0022044B4D
:100B70001A60FFF757FFFFF74BFF00BF20ED00E0C3
:100B80001CC3072008B5FFF7C7FC024BC3E90001EF
:100B900008BD00BF20C3072008B5FFF7BDFC024B0E
:100BA0001B68C01A08BD00BF20C3072000F108035E
:100BB00043604FF0FF32C360036100238260036033
:100BC000704700230361704743689A684B608A60EE
:100BD0009A68516099600368086101330360704747
:100BE0000A6830B5531C0AD103695A684A6091609B
:100BF0008B605960036808610133036030BD00F108
:100C000008035C682568AA42EFD32346F9E74168E8
:100C1000826803698A60826851605968884208BFA7
:100C20005A6000220261186801381860704770B578
:100C30001546026C0446866B42B905689DB940684A
:100C400000F08EFE65600136A66370BD6DB98068E8
:100C500008F037FCA368226C13446268A3609342D7
:100C600001D32368A3600020EDE7C06808F029FCE9
:100C7000236CE2685B4221681A448A42E2603EBF0C
:100C800062689B18E360022DEDD10EB1013EEAE7E8
:100C90003046D8E773B5856C0A46EB6BA96B0190BB
:100CA00099421AD201A9284695F84540FFF7BFFF9F
:100CB00064B2631C06460BD16B6A33B105F12400A4
:100CC00000F086FD002818BF0126304602B070BD36
:100CD000013464B285F84540F7E70026F5E703469E
:100CE0001A6C10B4084662B1D9685C681144A1421C
:100CF000D96028BF196810BC28BFD960D96808F02E
:100D0000E0BB10BC704770B50446FFF7C3FE94F813
:100D1000455004F124066DB2002D14DCFF2384F845
:100D20004530FFF7C7FEFFF7B5FE94F8445004F1D5
:100D300010066DB2002D19DCFF2384F84430BDE8A5
:100D40007040FFF7B7BEA36C4BB100212046FFF700
:100D5000A1FF08B100F0A6FD013D6DB2DCE7636ABA
:100D6000002BDBD0304600F033FDF2E72369002B87
:100D7000E2D0304600F02CFD08B100F093FD013DBB
:100D80006DB2D7E738B504460D46FFF783FE206CF9
:100D9000E36B22684343D1181B1A13446160E3607C
:100DA0000021FF23A163A26084F8443084F8453019
:100DB00095B9236963B104F1100000F009FD38B161
:100DC0004FF08052094B1A60BFF34F8FBFF36F8F04
:100DD000FFF770FE012038BD04F11000FFF7E6FEBA
:100DE00004F12400FFF7E2FEF2E700BF04ED00E0AB
:100DF00070B5064648434C300D46FFF7BCFD04462F
:100E000048B155B92060E663256401212046FFF70B
:100E1000B9FF0023A364204670BD00F14C030360BA
:100E2000F1E7FFFF2DE9FF470027044689461E46EC
:100E3000B846DFF8F0A00192FFF72CFEA26BE36B3F
:100E40009A4201D3022E21D1324649462046FFF76D
:100E5000EEFEA36C93B131462046FFF71BFF38B17D
:100E60004FF080522F4B1A60BFF34F8FBFF36F8F3D
:100E7000FFF720FE012004B0BDE8F087636A002B75
:100E8000EDD004F1240000F0A3FCE8E7019D1DB9BA
:100E9000FFF710FE0020EEE717B902A800F0D0FC23
:100EA000FFF708FE00F010FBFFF7F4FD94F8443064
:100EB000FF2B08BF84F8448094F84530FF2B08BF0F
:100EC00084F84580FFF7F6FD01A902A800F0C4FCF4
:100ED00010BBFFF7DFFDA76BE56BFFF7EBFDAF4244
:100EE00014D1019904F1100000F062FC2046FFF7D4
:100EF0000AFF00F07DFB38B94FF08053CAF800308C
:100F0000BFF34F8FBFF36F8F012795E72046FFF7A1
:100F1000FAFE00F06DFBF7E72046FFF7F4FE00F065
:100F200067FBB7E704ED00E010B5024600210120A1
:100F3000FFF75EFF044638B1002343600360C360DF
:100F40001A461946FFF76EFF204610BD2DE9F04105
:100F5000044690461F46EFF311864FF0100383F3CB
:100F60001188BFF36F8FBFF34F8F826BC36B9A42B1
:100F700001D3022F28D194F845503A466DB220464D
:100F8000FFF755FE6B1C1AD1A36C83B1394620467E
:100F9000FFF780FE08B9012005E0B8F1000FFAD094
:100FA0000120C8F8000086F31188BDE8F081636A6B
:100FB000002BF0D004F1240000F00AFCEAE7013530
:100FC0006DB284F84550E6E70020ECE738B50D46F1
:100FD000EFF311844FF0100282F31188BFF36F8F8B
:100FE000BFF34F8F816BC26B914221D290F84520A5
:100FF000013152B28163511C15D1826C62B1002162
:10100000FFF748FE08B9012003E0002DFBD00120C6
:10101000286084F3118838BD426A002AF3D0243056
:1010200000F0D6FBEEE7013252B280F84520EAE745
:101030000020EEE72DE9FF474FF0000A04460F4677
:1010400098465646DFF81C910192FFF723FDA56BE9
:1010500055B339462046E668FFF741FEB8F1000F68
:101060001BD12368013DA56313B900F0B1FC60609A
:10107000236963B104F1100000F0AAFB38B14FF00E
:101080008052384B1A60BFF34F8FBFF36F8FFFF75B
:1010900011FD012004B0BDE8F087636AE660002B13
:1010A000F5D004F12400E7E7019D1DB9FFF702FD2B
:1010B0002846EFE7BAF1000F02D102A800F0C0FB0A
:1010C000FFF7F8FC00F000FAFFF7E4FC94F8443076
:1010D000FF2B08BF84F8446094F84530FF2B08BF0D
:1010E00084F84560FFF7E6FC01A902A800F0B4FB14
:1010F00050BBFFF7CFFCA56BFFF7DCFCF5B923680D
:1011000033B9FFF7C7FC606800F0E2FBFFF7D2FCE1
:10111000019904F1240000F04BFB2046FFF7F3FD9A
:1011200000F066FA38B94FF08053C9F80030BFF3C9
:101130004F8FBFF36F8F4FF0010A86E72046FFF70E
:10114000E2FD00F055FAF6E72046FFF7DCFD00F07F
:101150004FFAFFF79FFCA56BFFF7ACFC002DEAD11F
:10116000A6E700BF04ED00E02DE9F04107469046F8
:10117000EFF311864FF0100383F31188BFF36F8FE5
:10118000BFF34F8F846B0CB390F84450013C6DB2A9
:10119000FFF7A5FD6B1CBC6313D13B690BB90120A4
:1011A0000BE007F1100000F013FB0028F7D0B8F1B6
:1011B000000FF4D00120C8F8000086F31188BDE8C4
:1011C000F08101356DB287F84450E8E72046F4E736
:1011D00010B50446FFF75EFCA46BFFF76BFC2046DE
:1011E00010BD806B7047FFFF4FF0805608B5064C6E
:1011F000064D2368012B04D92E60BFF34F8FBFF338
:101200006F8FFFF7D4FBF4E734C3072004ED00E051
:10121000064A13681968064B19B94FF0FF321A6075
:1012200070471268D268D2685268F8E72CC307206A
:1012300040C40720F8B51B4B1B4E1D6804463068A0
:101240000F460430FFF7E3FC334640B90120316814
:10125000164EC96A3268884022EA00023260621C77
:1012600007D137B1196812480431BDE8F840FFF7DB
:10127000ABBC2C441A68A542546007D90D4A1068CB
:101280001968BDE8F8400431FFF7AABC0A4A1068A3
:1012900019680431FFF7A4FC084B1A68944238BF60
:1012A0001C60F8BD74C4072028C3072010C40720A1
:1012B00060C4072030C307202CC3072040C4072088
:1012C0002DE9F84F4FEA820A804650460D4699466E
:1012D0000B9EFFF750FB0746002800F09B8058202C
:1012E000FFF749FB0446002800F09180524607634F
:1012F000A521384608F00AF9236BAAF1040A9A449A
:101300002AF0070A6B1E04F134020735597802F8F7
:10131000011B13F8011F09B1AB42F7D10A9D4FF031
:10132000000B092D28BF0925271DE5626564384695
:1013300084F83BB0C4F848B0FFF743FCC5F10A0598
:1013400004F11800FFF73DFCC4F850B02461A5611A
:101350006462C4F84CB084F854B04A4641465046E2
:10136000FFF770FB206006B13460FFF793FB304B52
:10137000304E1A68DFF8E48001321A603568002DBB
:101380004BD134601B68012B1AD108EB05001435D2
:10139000FFF70CFCC82DF8D1DFF8C490264D484665
:1013A000FFF704FC2846FFF701FC2448FFF7FEFB8B
:1013B0002348FFF7FBFB234BC3F80090224B1D6033
:1013C0000125224A22491368086801331360E26A42
:1013D00005FA02F3034314200B6000FB0280394638
:1013E000FFF7F2FBFFF766FB1A4B1B6863B133682C
:1013F000DA6AE36A9A4207D24FF08052164B1A60BB
:10140000BFF34F8FBFF36F8F2846BDE8F88F384684
:10141000FFF7C0FA4FF0FF35F6E70E4B1B68002BC5
:10142000CED13368DA6AE36A9A4298BF3460C7E77C
:1014300000C4072028C3072028C4072048C4072069
:1014400060C407202CC3072030C307200CC407202A
:1014500010C407205CC4072004ED00E034C307205B
:1014600014C4072013B50024114B0094019380226B
:10147000234610491048FFF723FF012816D14FF0EB
:10148000100383F31188BFF36F8FBFF34F8F4FF0BB
:10149000FF320A4B1A600A4B18600A4B1C60FFF7B8
:1014A00071FB02B0BDE81040FFF754BB02B010BDA5
:1014B0003CC407207EFA0100E911010040C4072066
:1014C0005CC4072074C40720024A13680133136008
:1014D000704700BF08C40720014B1868704700BF61
:1014E00074C407202DE9F84F364B1B68002B47D1F9
:1014F000354B1C6801341C605CB9344A344B1168AC
:1015000018681060334A1960136801331360FFF7DD
:101510007FFE314D4FF0000B2B68304F9C423ED385
:10152000DFF8A880DFF8C490D8F80020126872BBFA
:101530004FF0FF322A6032E006F1040A5046FFF70E
:1015400066FBB16A19B106F11800FFF760FB0122D2
:101550004FF0140EF06AD9F8003002FA00F1194386
:101560001F4BC9F800100EFB00305146FFF72CFB53
:101570003868F16AC26A914228BF4FF0010BD3E785
:10158000184A4FF0000B13680133136011E0D8F8CC
:101590000020D268D66871688C42CDD229603A6842
:1015A0000F4BD16A14224A439A58022A28BF4FF09F
:1015B000010B0D4A1268002A18BF4FF0010B584664
:1015C000BDE8F88F08C4072074C407202CC3072087
:1015D00030C3072044C4072040C4072028C3072085
:1015E00034C3072004C4072078C4072010C4072090
:1015F0002DE9F843FFF74EFA2A4B1A68013A1A60B0
:101600001C682CB10024FFF755FA2046BDE8F8838A
:10161000254B1B68002BF5D0DFF8A490234FDFF893
:10162000A480D9F80030E3B90CB1FFF7F1FD204DEB
:101630002C6844B101271F4EFFF754FF00B13760FB
:10164000013CF9D12C601B4B1B68002BDAD04FF00A
:101650008052194B1A60BFF34F8FBFF36F8F012475
:10166000D1E7D9F80C300125DC68261D04F11800FB
:10167000FFF7CDFA3046FFF7CAFA1420E26A39685C
:1016800005FA02F30B4300FB028031463B60FFF793
:101690009BFA0A4BE26A1B68DB6A9A4224BF054B3D
:1016A0001D60BEE708C4072000C4072010C407203F
:1016B00004C4072078C4072004ED00E028C30720F5
:1016C00048C4072034C3072008B540B94FF0805202
:1016D000084B1A60BFF34F8FBFF36F8F08BDFFF742
:1016E000F3FE0021FFF7A6FDFFF782FF0028EDD0F3
:1016F00008BD00BF04ED00E0264B70B51A68264B0C
:1017000012B101221A6070BD1A60FFF745FA234A30
:10171000234C1568A84204D92168CB6C5B1B034499
:10172000CB64236810601B6B1A68B2F1A53F0BD124
:101730005A68B2F1A53F07D19A68B2F1A53F03D12B
:10174000DB68B3F1A53F04D0206821683431FFF78E
:1017500031F9144B1B68B3FA83F31420DBB2C3F1E5
:101760001F0300FB03F210498D186E68083276687B
:101770000A44964200FB031308BF72686E6008BFFC
:101780006A605B68DB68236023685A6B074B5A64A6
:1017900070BD00BF08C4072078C40720FCC3072021
:1017A00028C3072010C4072034C30720004002408C
:1017B00010B50C46054B19681831FFF711FA204691
:1017C000BDE810400121FFF735BD00BF28C3072049
:1017D00038B5C368DC6804F118052846FFF717FA26
:1017E000114B1B68E3B9251D2846FFF710FA0123AA
:1017F0000E49E26A08689340034314200B602946AF
:101800000B4B00FB0230FFF7DFF90A4BE26A1B6863
:10181000DB6A9A4285BF0120074B0020186038BD63
:1018200029460648EFE700BF08C4072010C4072078
:1018300034C3072028C3072078C4072048C40720E2
:10184000034B1B680360034B1B684360704700BF7A
:1018500044C4072074C4072038B50D460446FFF77A
:1018600019F90E4B2A681868531C10D00C4B2168CC
:101870001B689942636801D098420DD2C11A8A420E
:101880000AD91B1A13442B602046FFF7D9FF002406
:10189000FFF710F9204638BD0124F9E774C407208A
:1018A00044C407200122014B1A60704778C4072006
:1018B000054B1B6833B1054B1B68002B0CBF022086
:1018C00000207047012070475CC4072008C407202F
:1018D0002DE9F0410446002839D01E4DC36A2A681C
:1018E000D26A934233D2142782691B4E002AA8BFC2
:1018F0002A6807FB0363A2BFD26AC2F10A028261AF
:1019000042699A4220D100F104084046FFF77FF96E
:10191000124A48B9E06A4743F3592BB901211368C9
:10192000814023EA010313602B681168D86A012300
:1019300083400B4313601423E062414603FB0060C5
:10194000BDE8F041FFF740B92B68DB6AC362BDE830
:10195000F08100BF28C3072034C3072010C407202C
:10196000F8B5044608B90020F8BD836CC16A426C22
:10197000013B91428364F6D0002BF4D1051D28462B
:10198000FFF745F9104E114A50B91421E76A79431F
:1019900073582BB901201368B84023EA0003136081
:1019A000636CC3F10A01E362A1610124116804FAC6
:1019B00003F0084310601420294600FB0360FFF782
:1019C00003F92046F8BD00BF34C3072010C4072028
:1019D000044B1A681AB119688A6C01328A64186853
:1019E000704700BF28C3072010B5FFF7D5F8064B96
:1019F000064A196829B119681468CB6C1B1B03448B
:101A0000CB64106010BD00BF28C30720FCC30720B3
:101A100008B5FFF7C1F8014B186008BDFCC30720EB
:101A200001207047064B10B5036000230446436055
:101A3000038103740120FFF777FAE060204610BDB0
:101A4000A0FA0100044B10B504460360406808B1D9
:101A500007F000FD204610BDA0FA01002DE9F04777
:101A600090F8055104468A4617469946089EDDF8C7
:101A700024801DB100252846BDE8F0870AB9002E54
:101A8000F8D0FFF715FF022835D00023202284F874
:101A90001131D4F80031C4F81471C4F81C6184F811
:101AA00010A1C4F81891C4F820811A60FEF734FD23
:101AB0004FF47A72002307F0E7F810F57A7641F1D7
:101AC00000070023D4F80C011A461946FFF7B2FAB2
:101AD00028B194F81151B5FA85F56D09CBE7FEF7F9
:101AE0001BFD4FF47A72002307F0CEF88F4208BF37
:101AF0008642E6D2EDE700234FF47A721946D4F815
:101B00000801FFF797FA0028B4D00023D4F80C019D
:101B10001A461946FFF78EFA00232021D4F8002137
:101B200084F810A184F81131C4F81471C4F8189124
:101B3000C4F81C61C4F82081D4F80C0111604FF482
:101B40007A721946FFF776FA20B194F81151B5FA76
:101B500085F56D090023D4F808011A461946FFF7E8
:101B600061F988E710B441F0010110BCFFF776BFBE
:101B70007FB500238DF8173001238DF80F200DF16C
:101B80001702009201930DF10F02FFF7EBFF9DF892
:101B9000170007B05DF804FB1FB504AC04F8012D75
:101BA000069A0093019201232246FFF7DBFF04B05F
:101BB00010BD13B5002401F0FE0101940094FFF75D
:101BC0004DFF02B010BD07B58DF804208DF805302B
:101BD00001AA0223FFF7EDFF03B05DF804FB07B590
:101BE0008DE80C00002341F001011A46FFF736FF93
:101BF00003B05DF804FB002307B502AA02F8013D1B
:101C0000FFF7EDFF03B05DF804FBFFFF38B50025DB
:101C10000446C0F8001180F805510120FFF784F94F
:101C20000322C4F8080129460120FFF7E1F8D4F89F
:101C300000310C4AC4F80C0193420CD002F5882202
:101C400093420AD0A2F50422934208D10A2384F8D1
:101C50000431204638BD0B23F9E70C23F7E7632353
:101C6000F5E700BF00C0054090F9043170B50B2BBB
:101C700005460C46164635D00C2B36D00A2B37D1EC
:101C800001210720FEF7E0FBB6F57A7F98BF4FF4FD
:101C90007A714FF06C0294BF71431649D5F8003148
:101CA000B4FBF1F19A612822642049084A43B2FB4F
:101CB000F0F21A613C2251430022B1FBF0F159616C
:101CC000DA601A625A629A62402201201A6095F91B
:101CD0000431094A590903F01F0300FA03F342F8DB
:101CE000213070BD01211320CCE701211A20C9E762
:101CF000002070BDA086010000E100E02022D0F8A5
:101D000000319A6110221A6008229A611A68D2067C
:101D1000FCD490F81031DB074CBF0123022380F87C
:101D200024317047002310B580F82431D0F80031F9
:101D300004465A68282A44D00DD8102A27D0182AD9
:101D400028D0082A0CD1D0F8181190F81021B1B978
:101D500042F0010215E0402A3ED005D8382A59D079
:101D60005B6884F811311DE0502A3FD0582AF7D122
:101D7000D0F81C219B681370FFF7C0FF04E002F04D
:101D8000FE029A6008229A6194F8240110BD90F82E
:101D90001021DDE72022D0F820119A61D0F8182117
:101DA00011B90AB92046E7E7002AEDD0D4F814119A
:101DB000013A11F8010B9860C4F81411C4F8182105
:101DC000E0E7D0F81821002AF0D190F81021D207CE
:101DD000E8D520221A60D5E720229A61D0F8202188
:101DE000012A4FF00402F5D89A61CBE79B68D0F83E
:101DF0001C211370D0F81C3104220133C0F81C31AF
:101E0000D0F82031013B012BC0F82031D0F800314F
:101E1000E0D1E9E790F810215B6812F0010F14BFE0
:101E20000122022280F8113180F82421ACE7FFFF63
:101E300013B50446FFF776FF88B1002302A941F8E5
:101E4000043DD4F80C01FFF7C1F8019B3BB14FF002
:101E50008052044B1A60BFF34F8FBFF36F8F02B0F5
:101E600010BD00BF04ED00E037B5044615468DF8FF
:101E70000710FFF71DFD022809D063699DF80720B0
:101E80001A701A7D5206FCD5012003B030BD002324
:101E90002A460DF10701E069FEF7C4FF0028F4D0DF
:101EA00063691B7D5B06EFD500230DF107011A4620
:101EB000E069FFF7BFF80028E6D063699DF80720C6
:101EC0001A70E1E710B50446024B0360FFF7BAFD54
:101ED000204610BDD4FA010010B50446FFF7F2FF0A
:101EE00020462C2105F09DFF204610BD10B504466C
:101EF000FFF7DEFC022807D1E069FFF769F918B1A6
:101F00000120FFF7E1FBF7E7012010BDF8B5064619
:101F100014460F4609B90020F8BD8369002BFAD09A
:101F2000FFF7C6FC022809D1002322463946B069D2
:101F3000FFF780F8003018BF0120F8BDFEF7ECFA7B
:101F40004FF47A72002306F09FFE0025044400231C
:101F500039461A46B069FFF76DF858B9FEF7DCFA52
:101F60004FF47A72002306F08FFE8D4208BF844240
:101F7000EDD2D0E70120F8BD002373B5426901938B
:101F80008DF803309368044603F00E03042B21D030
:101F90000C2B1FD0022B3FD1C069FFF722F9E38C35
:101FA000984203D9E069FFF71CF9E0841026002568
:101FB00001AA0DF10301E069FFF7D6F800282ED140
:101FC0005DB34FF080521B4B1A60BFF34F8FBFF3CE
:101FD0006F8F22E0FFF780FA0025A06263691A7D07
:101FE000D2070ED51B7801AA8DF803300DF103013D
:101FF0000023A069FEF7AAFF019B002B18BF012553
:10200000ECE7A069FFF7EDF8A38C9842D8D9A06956
:10201000FFF7E7F8A084D3E7137D02B070BD6369D2
:102020009DF803201A70019B002B18BF0125013E6B
:10203000C6D0BDE704ED00E038B504460D46FFF715
:10204000F1FC064B6561236000232046A361E36138
:102050002362A384E384A36238BD00BFD4FA0100E5
:10206000074A136823F0E06323F0FF0313600123A2
:10207000116803FA00F041F0807108431060704766
:1020800000400340002307B50D4A019352680D48F4
:10209000C2F30B12ADF802200DF1020101AA006893
:1020A000FEF754FF019B3BB14FF08052064B1A6084
:1020B000BFF34F8FBFF36F8F03B05DF804FB00BF1A
:1020C0000040034080C4072004ED00E010B5FEF797
:1020D000A9FB0121C4080C20FEF7B6F903210C204E
:1020E000FEF7CCF94FF40013104A11491360022394
:1020F000B4FBF3F0884214D8116841EA032313605B
:102100000120FEF711FF0B4B002218600221012075
:10211000FEF76EFE4FF48002074B1860074B1A6003
:1021200010BD0233B3F5807FE2D1E9E70040034000
:102130003F5DC6007CC4072080C4072000E100E0AA
:10214000F7B5002407280546ADF806401DD8FFF76F
:10215000AFFB0228154E1CD1154F23464FF0FF321E
:1021600021463868FEF766FF2846FFF779FF2346C9
:102170004FF0FF320DF106013068FEF75BFF23469A
:10218000224621463868FEF74DFEBDF8060003B032
:10219000F0BD2846FFF764FF00230DF106011A4643
:1021A0003068FEF747FF0028F6D0EEE780C407202E
:1021B0007CC40720026830B5D36913F0040310D043
:1021C00002F1300301F1100451F8045BA14243F81D
:1021D000045BF9D1438A01334382212301205360F8
:1021E00030BD184630BDFFFF2DE9FF41264C4501AB
:1021F00054F805806719D8F80C60D8F808303343D4
:10220000D90716D57868FEF7ECFFFB8908F12001A5
:1022100098424FF0000388BFF88167191A46786822
:10222000FEF794FE58B3BB8A0133BB820423C8F87F
:10223000043040F202631E4212D06719B868FEF7FC
:10224000D0FF3B8A0022984288BF388267196946CE
:10225000B868FEF789FF18B169463846FFF7AAFF4C
:10226000B20603D563199B6930469847330703D5F7
:102270002C44E3693046984704B0BDE8F081BB893F
:102280000133BB81D2E700BF8CC00720084B10B5DB
:10229000D3F8C440A20402D50020FFF7A5FF6304D1
:1022A00004D5BDE810400120FFF79EBF10BD00BF60
:1022B00000C00F4070B505460E4614460CB12B68A1
:1022C00003B970BD2268134208D06368984722683A
:1022D0002B6823EA02032B6023683360A468EDE7D0
:1022E000F8B5012484400F4616461D4610D079B13A
:1022F0000C2007F0A7F858B14FF40012336880E8BB
:10230000900083602B6830601C43024B2C601A6085
:10231000F8BD00BF00E100E01FB5184C1849636824
:1023200068460093A3680193636A0293A36A0393C8
:10233000144B1A68FFF7BEFF134B11491A6801A826
:10234000FFF7B8FF114B12491A6802A8FFF7B2FF56
:10235000104B0F491A6803A8FFF7ACFF009B0BB99D
:10236000019B13B14FF0FF33E360029B0BB9039B5A
:1023700013B14FF0FF33E36204B010BD8080024020
:102380008C80024088C4072084C4072090C40720A2
:10239000AC8002408CC4072010B414460029064AC1
:1023A0000649074B18BF1346064A18BF0A4621467E
:1023B00010BCFFF795BF00BF9480024084C4072083
:1023C0009080024088C4072070B5184B0E465C69A7
:1023D000174B05461A6C1A2022F470021A641A6C04
:1023E00004F4406442F420021A64996E41F440619E
:1023F0009966196821F470011960196841F4200187
:1024000019600321FEF73AF8FEF70CFAB4F5406FB5
:1024100006D13246C1082846BDE87040FFF724BC0B
:102420000123002085F8053170BD00BF00C00920E0
:1024300000C0024010B504460249FFF7E7FB204602
:1024400010BD00BF00000A4038B5084C23683BB9F6
:102450004FF4947005F088F80546FFF7EBFF256010
:102460002068BDE83840FFF7E3BC00BF94C40720F4
:1024700008B5044B1B689847034A137A43F00103DD
:10248000137208BD98C4072000000B401FB5044616
:10249000054B0DF1100E0FCB0EE90F000EEB84046F
:1024A00054F8100C04B010BDE8FA0100F7B50F465F
:1024B0000646FFF7EBFF17230124162202218DF8B1
:1024C00003308DF8073002AB1E448DF802208DF8E2
:1024D00001108DF8004005468DF8051016F8080C1F
:1024E00021468DF806208DF80440FDF7ADFF21460A
:1024F00016F8040CFDF7C2FF0023AB606C602B677D
:10250000FEF790F9034BB0FBF3F04743EF6003B0E5
:10251000F0BD00BF40420F00F0B587B06C460F4DD4
:10252000074695E807008DE8070003AE95E8070029
:1025300086E807000C223146204606F0B3FF38B982
:1025400003CC386020687960B860384607B0F0BDC9
:1025500095E8070084E80700E8E700BF1440024060
:102560000022184B1A720278C2F3050283F8202069
:102570004278C2F3050283F824208278C2F3040271
:1025800083F82820C278C2F3020283F8302002794F
:10259000C2F3040283F82C204279C2F3030283F8C9
:1025A0003820C179827901F00F0142EA0122417A93
:1025B0009A87027A01F00F0142EA01229A860122EB
:1025C0001A727047004002401FB501210920FDF733
:1025D0003BFF01222F4B01A81A72FFF79DFFBDF8A8
:1025E0000A3003F62603C3F30B030F2B1ED89DF806
:1025F000053003F03F033B2B18DC9DF8043003F05B
:102600003F033B2B12DC9DF8063003F01F03172B12
:102610000CDCBDF80C30C3F30B03B3F5B77F05DA60
:102620009DF8093003F00F030C2B2FDD01229DF8DC
:10263000083001A862F304038DF808309DF80930D2
:1026400062F3030340F2DA728DF80930BDF80A3004
:1026500062F30B03ADF80A309DF807306FF3020305
:102660008DF807309DF806306FF304038DF80630BF
:102670009DF805306FF305038DF805309DF80430A3
:102680006FF305038DF80430FFF76AFF05B05DF8BE
:1026900004FB00BF0040024008B501211D20FDF7EA
:1026A000D3FE0122024B1A631A6BD207FCD508BD78
:1026B000004000504FF0FF3337B5B1F5805F019314
:1026C0004AD2274B1C69E50748D4264C2469E40705
:1026D00044D4254CE5686D0735D40325234CA5600B
:1026E0002561234D1D60002A2FD001AC5C6041F0B4
:1026F0000044DC6000249C6041F206041C61194C1B
:102700003AB3206041F080610022E1606560A26020
:102710004FF4086222611A6942F001021A612269CB
:1027200042F001022261104A516A41F003015162F4
:10273000D868C0F30B000028FAD1536A23F00303D2
:10274000536203B030BDA568C4E7586041F0084447
:10275000CFE701AA2260D7E70120F2E70220F0E7E5
:102760002041005000410050000003400040005054
:102770000800034010B50A4C23681BB90120FEF77E
:10278000D3FB2060FFF794F8022808D100232068CB
:102790004FF0FF32BDE810401946FEF74BBC10BDAC
:1027A0009CC4072010B5FFF783F8022808D1BDE8C4
:1027B0001040002303481A4619460068FEF732BB52
:1027C00010BD00BF9CC4072010B50446024B036037
:1027D000FFF738F9204610BDD4FA010010B50446C1
:1027E000FFF7F2FF20462C2105F01BFB204610BD11
:1027F00010B504460349FFF71FFC034B2046236036
:1028000010BD00BF00C000404CFB010038B5074CB4
:10281000236833B92C2004F0A7FE0546FFF7E8FF34
:1028200025602068BDE83840FFF7A6BBA0C407209C
:1028300010B50446024B0360FFF704F9204610BDB3
:10284000D4FA010010B50446FFF7F2FF20462C2110
:1028500005F0E7FA204610BD10B504460349FFF71E
:10286000EBFB034B2046236010BD00BF00800940F6
:10287000B4FB010038B5074C236833B92C2004F0B1
:1028800073FE0546FFF7E8FF25602068BDE8384085
:10289000FFF772BBA4C4072010B50446024B0360C7
:1028A000FFF7D0F8204610BDD4FA010010B5044659
:1028B000FFF7F2FF20462C2105F0B3FA204610BDA9
:1028C00010B504460349FFF7B7FB034B20462360CE
:1028D00010BD00BF00C009401CFC010038B5074C0A
:1028E000236833B92C2004F03FFE0546FFF7E8FFCC
:1028F00025602068BDE83840FFF73EBBA8C407202C
:1029000008B50C2006F09EFD18B10023036043605B
:10291000836008BD38B50D46044608B9002038BDAF
:10292000082006F08FFD0028F8D0002343602368BC
:10293000056033B92060A36860600133A3600120A3
:1029400038BD6368002BF6D05860F4E7F8B50D4643
:1029500016461F4608B90020F8BD0029FBD00468C0
:10296000002CF8D0069B3A4631462068A84708B9A3
:102970002068F8BD6468F3E7F8B50D4616461F46B3
:1029800008B90120F8BD0029FBD00468002CF8D05C
:10299000069B3A4631462068A84708B16468F5E7C7
:1029A000F8BDFFFFF0B50024ADF50D7D0D460746DF
:1029B0000294FDF7B1FD4FF47A72002306F064F93A
:1029C0004FF409720646214603A806F09FFD002D2C
:1029D00038D012221C4903A802F070F9044668BBE3
:1029E000069903A802F0E6FB044630B902AB2A467A
:1029F000394603A802F0B1FA044603A802F0C8FB66
:102A0000FDF78AFD4FF47A72002306F03DF90F4B73
:102A1000801B1A889042029A88BF188095420CBF8A
:102A20000126002606D0059B2146009308482B4628
:102A300007F006FF30460DF50D7DF0BD054807F0A7
:102A4000FFFEDDE72C46DBE75CFC0100B4C4072099
:102A50007AFC010066FC01002F4B2DE9F74F1D6841
:102A6000DFF8BC902E46DFF8BCA005F58068002397
:102A700002AF47F8043D4EF660223946D9F800000F
:102A8000FEF7D8FA08B1019B2BB9711B2846FFF756
:102A900089FF2E46EBE7D9F80000FEF799FBBAF85C
:102AA0000030019C0130984288BFAAF800002046FF
:102AB00008F019FA0A230021235400F1010B019AAE
:102AC00006EB0B0402F80B10A04501991FD8A8EBE8
:102AD0000602304606F0F5FCA4EB08044FF48061D2
:102AE0002846FFF75FFF3CB10199ABEB040B224690
:102AF0005944284606F0E5FC2C44084800234FF0D2
:102B0000FF3239460068FEF78DF92646AFE75A4690
:102B1000304606F0D6FCF0E7BCC40720B0C407205E
:102B2000B8C40720ACC407202DE9FF412B4C8046D8
:102B30002568002D4AD14FF48060039506F082FC91
:102B4000274E2060A8B92068002842D1336863B1BD
:102B50000A24002303A91A463068FEF76BFA10B165
:102B6000039806F077FC013CF3D11E4807F0F0FE15
:102B70002CE02A4604210A20FEF73AF91A4F2A4689
:102B8000386004210A20FEF733F93B683060002BDF
:102B9000D9D00028D7D00A25962006F053FC039000
:102BA0000028D0D0002303A91A463068FEF73AF96E
:102BB000013DF1D10195CDF800802B464FF4C07254
:102BC0000A490B48FEF77CFB0028BCD004B0BDE8E6
:102BD000F08106F03FFC00232360B7E7BCC4072068
:102BE000B0C4072037FC0100B8C4072030FC010046
:102BF000592A010010B50446FDF74CFF013C14F8BA
:102C0000010F18B9BDE81040FDF754BFFDF79AFE5B
:102C1000F5E70FB470B54FF48075C2B046AC54F808
:102C2000046B2A46002102A806F070FC23463246B7
:102C3000294602A8019409F0E5FA044602A8FFF724
:102C4000D9FF204642B0BDE8704004B07047002371
:102C500013B50C4602A941F8043D0068FEF7B6F929
:102C6000019B1BB1236843F001032360012002B0E4
:102C700010BD30B5044685B001A80D46FFF74CFCE9
:102C80009DF80630227903F01F039A421BD19DF86C
:102C90000530627903F03F039A4214D19DF8043065
:102CA000A27903F03F039A420DD1002304A941F811
:102CB000103D23681868FEF789F9009B1BB12B684B
:102CC00043F001032B60012005B030BD30B5002575
:102CD000234A87B01378234C43F00103137003A8F1
:102CE0000295FFF719FC2B46009502AA1E492068A1
:102CF000FFF742FE9DF80C3013F03F031BD1009309
:102D000002AA19496068FFF737FE9DF80D3013F0ED
:102D10003F0310D1009302AA1349A068FFF72CFECD
:102D20009DF80E3013F01F0305D1009302AA0E493F
:102D3000E068FFF721FE00230C48009302AA0C492B
:102D40000068FFF719FE029B3BB14FF08052094B20
:102D50001A60BFF34F8FBFF36F8F07B030BD00BF56
:102D600000400240C0C407204F2C0100D0C40720FF
:102D7000732C010004ED00E038B50446806818B1FA
:102D800023780BB906F066FBE56835B12846FFF7F6
:102D9000F3FF1421284605F044F8204638BD10B54D
:102DA0008468204608F0CEF808B1001B10BD4FF033
:102DB000FF3010BD08B5FFF7F2FF013018BF01204A
:102DC00008BD037870B50546FBB9B1B101311024D7
:102DD00091FBF4F4AE68013424016C607EB92046A6
:102DE00006F030FBA86018B12246314606F08EFB93
:102DF000A868003018BF012070BD0421E7E7611CFE
:102E0000304607F00FFEA860F2E7002070BD0022F8
:102E1000027042608260C2600261FFF7D2BF70B58B
:102E2000044608460D4608F05EF86368014698427D
:102E30000DDD2046FFF7C5FF064640B9626829460A
:102E4000A06808F06AF8A2686368D65470BD294685
:102E5000A068BDE8704008F03EB838B504460846A2
:102E60000D4608F040F801462046FFF7D0FF204607
:102E70002946FFF7D4FF204638BD70B50646FDF75A
:102E80004BFB841941F10005FDF746FBA94208BF41
:102E9000A042F9D370BD08B5FEF70AFD831E584263
:102EA000584108BD10B50446FFF7F5FF20B1204694
:102EB000BDE81040FEF708BC4FF47A706043BDE8EF
:102EC0001040FFF7DABF08B5006807F0FAFF0030DE
:102ED00018BF012008BDFFFF07B5002330B102462F
:102EE0000448009304490068FFF730FD03B05DF823
:102EF00004FB00BFD4C40720C72E0100F8B5064666
:102F000010B900242046F8BD0378002BF9D0154DE8
:102F10002B6813B9FFF7F4FC28603046FFF7DCFF9D
:102F200007460028EDD1082006F08CFA0446002858
:102F3000E7D080E8C000FFF7E3FC606018B92046E6
:102F400006F088FADDE728682146FFF7E3FC05462E
:102F50000028D7D1606806F07DFA204606F07AFA9C
:102F60002C46CFE7D4C4072010B50446FFF702FC77
:102F70001CB1012C08D0042402E000F0E3FC04465C
:102F8000FFF710FC204610BD00F074F9F7E728B1F8
:102F9000012801D00420704700F022BA7047F8B52C
:102FA00007460C4615461E46FFF7E4FB1FB1012FEE
:102FB0000BD0042405E032462946204600F00EFDE1
:102FC0000446FFF7EFFB2046F8BD3246294620466F
:102FD00000F00EFAF4E7F8B507460C4615461E4613
:102FE000FFF7C8FB1FB1012F0BD0042405E03246C8
:102FF0002946204600F02AFD0446FFF7D3FB204671
:10300000F8BD32462946204600F03EFAF4E770B596
:1030100006460C461546FFF7ADFB1EB1012E0AD041
:10302000042404E02946204600F036FD0446FFF75C
:10303000B9FB204670BD2946204600F07FFAF5E72F
:1030400008B5FDF769FA4FF47A72002305F01CFE0B
:1030500008BDFFFF10B50446FDF7E4FB074BB0FBCE
:10306000F3F00223B0FBF3F2944202D3044A13615B
:1030700010BDB3F5807FF9D00233F3E740420F0073
:1030800000000340034B9860DA68D206FCD49868CD
:10309000C0B270470000034070B5FFF7D1FF00F5E4
:1030A000FA74FF20FFF7EEFF0025FF20FFF7EAFF8D
:1030B000FF28064605D0FFF7C3FFA94208BFA0427C
:1030C000F3D3304670BDFFFF38B54FF00075054CA7
:1030D000E561FFF7E1FF044AA561137843F00103BE
:1030E000137038BD20C00920CCC007202DE97043E3
:1030F00006460D46FFF7A4FF643080464FF00009F6
:10310000FF20FFF7BFFFFF2808D1FFF799FF4945D0
:1031100008BF4045F4D30020BDE87083FE28FAD1F3
:10312000102D0ED900224FF400713046FFF7C2FA7D
:10313000FF20FFF7A7FFFF20FFF7A4FF0120BDE856
:103140007083341D0435FF20FFF79CFF04F8040C46
:10315000FF20FFF797FF04F8030CFF20FFF792FF13
:1031600004F8020CFF20FFF78DFF043404F8050C6F
:103170002B1BDE42E7D1DBE770B506460D46FFF7B5
:103180008BFFFF28044619D12846FFF77BFFFD2D52
:1031900016D022464FF400713046FFF78BFA2046D6
:1031A000FFF770FF2046FFF76DFF2046FFF76AFF2D
:1031B00000F01F00431F5842584170BD002070BDF1
:1031C000012070BD020638B504460D4607D5002122
:1031D0007720FFF7F7FF012836D804F07F044FF07F
:1031E00000721A4B9A61DA61FFF756FFFF282AD165
:1031F0002046FFF747FF280EFFF744FFC5F30740BF
:10320000FFF740FFC5F30720FFF73CFFE8B2FFF7E9
:1032100039FF402C15D0482C14BF01208720FFF720
:1032200031FF4C2C02D1FF20FFF72CFF0A21FF2099
:10323000FFF728FF030607D5013911F0FF01F6D18A
:1032400038BD9520EBE7FF2038BD00BF20C0092026
:10325000064A074913784969DBB2490154BF03F0B4
:10326000FD0343F003031370704700BFCCC0072079
:1032700020C009202DE9F743FFF7EAFF554B1A78E4
:103280001E4612F0020F04D01878C0B203B0BDE899
:10329000F0830120FFF7DEFE0A24FF20013CFFF748
:1032A000F1FE14F0FF04F8D14FF000734A4F2146AD
:1032B000FB614020FFF786FF0128804613D04FF0C6
:1032C0000008464B83F800804FF00073BB61B8F1F3
:1032D000000F7BD03378182003F0FE033370FFF724
:1032E000B9FE3078D1E7FFF7ABFE4FF4D57100F5AA
:1032F0007A754820FFF766FF012840D10DF10408D8
:10330000FF20FFF7BFFE08F804000134042CF7D1BA
:103310009DF80630012BD2D19DF80730AA2BCED1D3
:103320002C460025FFF78CFEA94208BFA0421ED301
:10333000FFF786FEA94208BFA042C0D200217A2032
:10334000FFF740FF0028BAD10146FF20FFF79AFEA1
:1033500008F8010001310429F7D19DF8043013F079
:10336000400F14BF4FF00C084FF00408A9E74FF0CE
:103370008041E920FFF726FF0028D3D1D8E7214676
:10338000E920FFF71FFF02282C4636BF4FF0E9095E
:103390004FF041094FF002080025FFF751FEA94206
:1033A00008BFA0420BD3FFF74BFEA94208BFA042C3
:1033B00087D34FF400715020FFF704FF81E700210D
:1033C0004846FFF7FFFE0028E7D1ECE7FFF77CFE59
:1033D00087E700BFCCC0072020C00920D8C4072041
:1033E00008B5FFF735FF014B187808BDCCC00720A2
:1033F00070B5144606460846FFF72AFF002C38D061
:103400001E4B1B78DA0736D44FF000721C4DEA6170
:103410001C4A1278130758BF4002012C014612D1F2
:103420005120FFF7CFFE38B94FF400713046FFF757
:103430005DFEB0FA80F464094FF00073201CAB61AC
:1034400018BF012070BD5220FFF7BCFE0028F3D149
:103450004FF400713046FFF749FE28B1013C14F0EB
:10346000FF0406F50076F3D100214C20FFF7AAFEF9
:10347000E2E7042070BD032070BD00BFCCC0072070
:1034800020C00920D8C40720F8B5144606460F46C8
:10349000FFF7DEFE002C44D0254B1A78D10742D42A
:1034A0001B785A0741D44FF00072224DEA61224A3C
:1034B0001278130758BF7F02012C12D139465820C9
:1034C000FFF780FE58BBFE213046FFF755FEB0FAED
:1034D00080F464094FF00073201CAB6118BF012019
:1034E000F8BD12F0060F03D02146D720FFF76AFE81
:1034F00039465920FFF766FE0028EBD1FC21304603
:10350000FFF73AFE28B1013C14F0FF0406F50076FF
:10351000F4D1FD210020FFF72FFE0028DAD101248D
:10352000D8E70420F8BD0320F8BD0220F8BD00BF95
:10353000CCC0072020C00920D8C407207FB50D4685
:10354000FFF786FE05281AD12B78012B15D005D35D
:10355000022B0BD00424204604B070BD7B4B5C6969
:1035600014F0806409D1FFF7AFFDF4E7774B5B6996
:1035700083F08063C3F380636B700024EBE7744BCC
:103580001B78DB0700F1E0800E2800F2DB80DFE82B
:1035900000F00817555AD9D9D9D9D9D9A7ABBABD8E
:1035A000CD004FF00072694BDA61FFF775FDB0F1A5
:1035B000FF0418BF01244FF00072644B9A61CAE700
:1035C00000214920FFF7FEFD044608B10124F2E77F
:1035D00010216846FFF78AFD0028F7D09DF80030DB
:1035E0009DF808109B09012B9DF8093006D15A1C43
:1035F00002EB012292B292022A60DCE79DF80720DA
:103600009DF80A00920002EB91129DF8061001321B
:10361000890201F440610A449DF805105B0001F045
:103620000F0101EBD011023103F006030B44DBB2B2
:1036300092B2093B02FA03F32B60BCE74FF400732C
:103640002B800024B7E7434E317811F004011CD0E1
:103650000021CD20FFF7B6FD0028B7D1FF20FFF7EE
:1036600011FD10216846FFF741FD0028AED030243F
:10367000FF20FFF707FD601E10F0FF04F8D19DF852
:103680000A301A0910239340D6E74920FFF79AFD24
:10369000044600289AD110216846FFF727FD00282C
:1036A00094D030789DF80A3010F002009DF80B108D
:1036B0000AD05B009DF80D2003F07E0303EBD113CD
:1036C00092090133013ADEE7CA0002F01802C3F39F
:1036D000840302EB5112013302FB03332B60B0E78A
:1036E0001C4B1B782B70ACE700214920FFF76AFDCB
:1036F00000287FF46BAF10212846FFF7F7FCB0FAE3
:1037000080F4640957E700214A20EFE700217A207E
:10371000FFF758FD00287FF459AF291DFF20FFF760
:10372000B1FC05F8010B8D42F8D18AE70021CD20CC
:10373000FFF748FD00287FF449AFFF20FFF7A2FC08
:103740004021D9E7042436E7032404E720C00920F8
:10375000CCC00720D8C40720054B1B78253BDBB223
:10376000032B9ABF034A52F823000020704700BF82
:10377000E0C40720B4FC01001B4B2DE9F0411D887B
:103780000646B5F5007F0F46144603D12A4621466A
:1037900038460BE0B5F5807F0CD12A4621463846E5
:1037A000B0472A4604F5807107F580703346BDE8BE
:1037B000F0411847B5F5047F04D1510A89024FF44E
:1037C0000072E5E7B5F5847F0BD1140A61024FF46E
:1037D00080723846B0474FF4807201346102B818E5
:1037E000E4E7BDE8F08100BFE2C4072010B5294B33
:1037F00000294DDD0729027829DD9A6042780839D1
:103800009A6082789A60C2789A6002799A60427966
:103810009A6082799A60C47900F108029C609C6980
:103820006407FCD59C6804709C6844709C68847034
:103830009C68C470DC68E406FCD49C6804719C68D5
:1038400044719C6884719C68C4711046D0E7032958
:1038500014DD9A60427804399A6082789A60C4785C
:10386000021D9C60DC68E406FCD49C6804709C68C3
:1038700044709C6884709C68C470E6E7441C9A603D
:103880000139DA68D206FCD49A6802702046AFE7A4
:1038900010BD00BF0000034007B50B0C8DF80530CC
:1038A0008DF807100B0A04218DF804000DEB0100C0
:1038B0008DF80630FFF79AFF03B05DF804FBFFFFB9
:1038C000F7B5032340250E4C1746E5618DF804300B
:1038D0000B0C8DF805308DF807100B0A04210646F5
:1038E0000DEB01008DF80630FFF780FF002239460E
:1038F0003046FEF7DFFEA561A561A56103B0F0BD0E
:1039000000C0092040220D4BDA61D7220C4B9A608F
:10391000DA68D206FCD40A4A9B68FF2113469160FC
:10392000D868C006FCD4986810F0800FF7D0402209
:10393000024BC0B29A619A619A61704700C0092037
:1039400000000340F7B5FFF7DDFF002340271E4CC2
:103950001E4E23801E4BF7611A889B780546032173
:1039600001A8ADF804208DF80630FFF73FFF9DF861
:1039700005209DF806301F2AB761B761B76115D1E0
:10398000A3F12502032A11D8124A252B137005F042
:10399000010011D1002814BF4FF480734FF48473D9
:1039A0002380FFF7D9FE0C4B400A18602088B0FA3C
:1039B00080F0400903B0F0BD002814BF4FF400733D
:1039C0004FF40473ECE700BFE2C4072000C00920F5
:1039D000ADFC0100E0C40720DCC407202DE9F04164
:1039E00017460D4604461448FFF713F9134AEB191E
:1039F0001268013B93421BD81148FFF70AF90026D1
:103A0000FFF780FF6D02DFF840802D1BBE4204EB04
:103A1000050207DA21464046FFF7AEFE04F50074C2
:103A20000136F3E70748FFF7F4F80020BDE8F0811E
:103A30000120BDE8F08100BFC4FC0100DCC4072008
:103A4000D5FC0100E5FC0100C13801008B182DE90F
:103A5000F04117460E4A013B1268934211D80446C2
:103A60000026DFF83080C0EB4125BE4204EB0502A2
:103A70000ADA21464046FFF77FFE04F5007401365E
:103A8000F3E70120BDE8F0810020BDE8F08100BF30
:103A9000DCC40720793B010008B5072805D8DFE81A
:103AA00000F0060A0F1308080808042008BDFFF7F5
:103AB00029FF002008BDFFF74FFE400A0860F8E725
:103AC0004FF400730B80F4E701230B60F1E7FFFF75
:103AD00070B590B003466A466E4600F14005144644
:103AE00018685968083303C4AB422246F7D1402412
:103AF000074D0021EC619B20FFF7CEFE21463046AA
:103B0000FFF774FEAC61AC61AC6110B070BD00BF7A
:103B100000C0092070B540240646074D00217720DB
:103B2000EC61FFF7B9FE21463046FFF75FFEAC615E
:103B3000AC61AC6170BD00BF00C0092008B5064B88
:103B4000198831F01F0104D0FFF706FEB0FBF1F039
:103B500008BD084608BD00BFE2C40720014B188815
:103B6000704700BFE2C40720024B1878003018BF2E
:103B700001207047E2C407204FF0FF332DE9F743DF
:103B80000F46914601938046FFF7BCFEFFF7ECFF1E
:103B90000646B8B14025194C194BE5611B88032036
:103BA000B3F5847F0CBF4FF480714FF4007139433B
:103BB000FFF772FE04210DEB0100FFF717FEA56170
:103BC000A561A56140230D4C39468220E361FFF7D2
:103BD00063FE012249464046FEF76CFD3EB1019B63
:103BE00002A8013340F8043D0421FFF7FFFD402304
:103BF000A361A361A36103B0BDE8F08300C0092005
:103C0000E2C4072037B540250421074B074C18684C
:103C10000190E5610DEB0100FFF7E8FDA561A561ED
:103C2000A56103B030BD00BFB0FC010000C0092099
:103C30001FB501A8FEF770FC9DF8093003F00F00D6
:103C40009DF8083003F01F031B0443EA40539DF81E
:103C5000060000F01F0043EAC0239DF8050000F0B5
:103C60003F0043EA40139DF80400C0F344000343BF
:103C7000BDF80A00400600F10840184305B05DF8A1
:103C800004FB30B504460D1F131B0344032B0AD855
:103C900022F00303194402F00302013B18440A44D2
:103CA000914205D130BD55F8043F44F8043BEBE7A1
:103CB00011F8013B00F8013FF2E70244904200D1C5
:103CC000704700F8011BF9E7024600F10B010020E4
:103CD000C30143EA500312F8010B03448A4203F084
:103CE000FF00F5D17047036810B5044653B119467B
:103CF0000A4611F8010B1F2810D93A28F8D1591C8F
:103D00008A4202D04FF0FF3010BD1B78303BD9B251
:103D10000129F7D801321846226010BD002010BDDD
:103D200003692DE9F04101F109020D4663B3002456
:103D30002E2741694E1E16F8013F0134202B19D061
:103D4000052B48D0092C01D117700132A3F1410E87
:103D5000BEF1190F0CD8082C8CBF4FF0100C4FF08F
:103D6000080C91F80CE01CEA0E0F1CBF2033DBB2EC
:103D7000137001320B2CDED1CB7A2B72CB692B6006
:103D80000B8BAB80CB8AEB80002414702E6A3EB381
:103D9000036923B9002400233355BDE8F0816B6A21
:103DA000002BF7D04FF6FF73028C9A42F2D0D0F876
:103DB0001C80771E38F814000028ECD0002101F098
:103DC000FDFD0028E6D06B6A013B9C42E2D2013443
:103DD00007F8010FEEE7092C4FF0E503C8D1B3E770
:103DE000BDE8F081F8B5056B00F134070446012306
:103DF0002A4639464078FFF7EEF8A0B9636AE269CF
:103E0000EB1A9342207101D30020F8BDE678012E11
:103E1000FAD9E36939461D442A4601236078FFF741
:103E2000DAF8013EF3E70120F8BD03790BB1FFF7A3
:103E3000D9BF18467047FFFF70B50446FFF7F5FF7E
:103E4000054680BB2378032B25D16379012B22D132
:103E500004F1340601464FF400723046FFF72DFF9F
:103E60004AF65522A4F832220F4A3146626302F123
:103E7000FF5202F500522032C4F8182262696078BD
:103E8000C4F81C222269C4F82022226A013222636B
:103E9000FFF7A1F86571002260781146FFF7B7F8C7
:103EA000003018BF012070BD52526141036B70B5E4
:103EB0008B4205460E4611D0FFF7B7FF044610B1FE
:103EC0000124204670BD0123324605F13401687893
:103ED000FFF765F80028F3D12E63F2E70024F0E73E
:103EE000002310B503714FF0FF3303630446FFF75F
:103EF000DDFFA0B94AF65523B4F832229A4210D118
:103F0000D4F86A30084A23F07F4393420AD0D4F8A9
:103F1000860020F07F40801A18BF012010BD0320CA
:103F200010BD022010BD00BF464154000023F0B573
:103F3000036085B0074608461546FFF7D4FE061E07
:103F4000C0F2F1807D4B53F82640002C00F0ED804C
:103F5000E06801F06FFD002800F0E9803C60237804
:103F60006BB16078FFF713F8C10708D4002D00F09B
:103F7000B78010F0040000D00A2005B0F0BD002387
:103F8000F0B223706070FEF7EFFFC20700F1D1803E
:103F90000DB14307F0D400212046FFF7A1FF01280F
:103FA00040F0AC802146002291F8F6310BB1D1F8F7
:103FB000FA314DF822300132042A01F11001F3D117
:103FC00000265DF82650002D00F08C802946204602
:103FD000FFF786FF002840F08680B4F83F30B3F545
:103FE000007F40F08980B4F84A1001B9A16D94F8BF
:103FF0004420E161531E012BE2707DD894F84160AA
:10400000A670002E78D0731E334275D1B4F845E007
:104010001EF00F0FA4F808E06ED1B4F8473003B9D2
:10402000636DB4F84270002F66D04A4307EB1E1050
:104030001044834260D31B1AB3FBF6F3002B5BD012
:1040400040F6F576B3425BD94FF6F576B34294BFAE
:104050000226032602332F442844032EA36125623F
:104060006762E0624ED1BEF1000F45D1226E9B0027
:10407000A26203F2FF13B1EB532F3DD34FF0FF3396
:10408000636123618023032E637122D1B4F864300D
:10409000012B1ED1691C2046FFF708FFC8B94AF65C
:1040A0005523B4F8322260719A4212D1626B244BCC
:1040B0009A420ED103F1FF53D4F8182203F50053AE
:1040C00020339A4201BFD4F81C326361D4F8203205
:1040D00023611C4A2670138801339BB21380E3804E
:1040E00000204AE702200136042E7FF46AAF03283D
:1040F00021D000283FF471AF0D203EE70025F6E700
:104100000126A7E7BEF1000FF6D0022E17444FEAB2
:1041100043021CBFD21803F00103A7620CBF134671
:1041200003EB5203A5E70B2027E70C2025E70F2020
:1041300023E7032021E701201FE700BFE4C4072095
:1041400052526141ECC4072010B50446A8B103687F
:104150009BB11A788AB1D988828891420DD1D868EA
:1041600001F068FC58B123685878FEF710FF10F092
:10417000010F14BF0320002010BD092010BD0F2027
:1041800010BD50B10F2905D84FF41A4323FA01F19D
:10419000CB0702D4C06801F060BC70478369023964
:1041A000023B99423DBF8378C06A01FB03000020B7
:1041B00070470129F8B507460C464BD983699942E7
:1041C00048D20378022B29D0032B34D0012B41D1C4
:1041D00001EB5106416A01EB5621FFF767FE10B172
:1041E0004FF0FF30F8BD796AC6F3080301363B444F
:1041F00001EB5621384693F83450FFF757FE00285C
:10420000EED1C6F308063E4496F83400E30745EACB
:1042100000204CBF0009C0F30B00F8BD416A01EB60
:104220001421FFF743FE0028DAD1660006F4FF767A
:104230003E44B08EF8BD416A01EBD411FFF736FE63
:104240000028CDD1A40004F4FE743C44606B20F03F
:104250007040F8BD0120F8BD70B5044682680D4677
:10426000012AE18001D1022070BD036899698A4268
:10427000F9D2BAB91978032901D1996A99B919897A
:104280008D42F0D2986AE2600028ECD0236800EBFF
:104290001510343305F00F0503EB451520616561FA
:1042A000002070BD11460A469E783601B54211467F
:1042B000206802D2FFF772FFE5E7FFF77AFF431CA1
:1042C000024607D00128CED923689B699842CAD2FA
:1042D000AD1BEBE7012070BD0129F8B505460C4682
:1042E000164660D9836999425DD20378022B3AD091
:1042F000032B45D0012B54D101EB5107416A01EB4F
:104300005721FFF7D3FD18BBC7F3080314F00104CE
:104310002B4417BF93F83420F2B202F00F013201A0
:104320001CBF02F0F0020A4383F834200123696ABB
:1043300001372B7101EB57212846FFF7B7FD38B93C
:10434000C7F308072F4434B1C6F3071687F8346063
:1043500001232B71F8BD97F83430C6F3032623F000
:104360000F031E43F2E7416A01EB1421FFF79EFDA4
:104370000028EDD1640004F4FF742C44A686E7E71E
:10438000416A01EBD411FFF791FD0028E0D1A400B0
:1043900004F4FE7434342B5903F070431E432E5141
:1043A000D6E70220D4E70220F8BDF8B505460F464F
:1043B00071B90669E6B183699E4228BF0126344679
:1043C000AB6901349C4216D3012E13D8002408E0B7
:1043D000FFF7EFFE0128044635D9013003D14FF035
:1043E000FF342046F8BDAB699C42FAD33E46E6E76F
:1043F0000126E4E7022421462846FFF7DAFE30B121
:10440000411CECD001281ED0B442D9D1DEE76FF0B8
:10441000704221462846FFF75FFF90B957B96B6994
:104420002C615A1CDDD0013B6B616B7943F00103B9
:104430006B71D6E7224639462846FFF74DFF002824
:10444000EDD00128CBD00124CBE72DE9F843C68875
:1044500004460136B3B2894613B90420BDE8F88397
:104460000369002BF9D016F00F0807D1C16801339A
:104470000361006859B903899E42EED22368E68041
:10448000343303EB481363610020BDE8F883877879
:10449000013F17EA1617F1D1FFF78BFE01280546F9
:1044A00002D80220BDE8F883421C02D10120BDE8F9
:1044B000F883206883699D4227D3B9F1000FCCD0DF
:1044C000E168FFF772FF0546002831D00128E8D0E7
:1044D000431CEBD02068FFF7A8FC01460028E5D17B
:1044E00020684FF400723430FFF7E7FB226829465A
:1044F0001046FFF753FE4FF00109106320688378E0
:104500009F4209D3036BDF1B0763E56029462068E0
:10451000FFF744FE2061B1E780F80490FFF762FCEA
:104520000028C3D122680137136B01331363E5E719
:104530000720BDE8F883FFFF2DE9F74F4FF0FF0894
:104540004FF6FF7706464446078431693068FFF727
:10455000ADFC824600285ED175692B78002B76D0A1
:10456000E52B06D0E97A01F03F02090703D50F2AAF
:1045700003D0378447E00F2A54D1D6F81CB0BBF1E2
:10458000000F41D058063CD503F0BF04F38895F8DE
:104590000D8033846B7B434535D195F800A0012015
:1045A0002AF0400A0AF1FF334FF00D0A4FF00009DC
:1045B0000AFB03FA274B19F80320AA5A78B31046CE
:1045C00001F01AFABAF17F0F01901CD80AF101022A
:1045D0003BF81A00009201F00FFA0199814212D1C2
:1045E000009A924609F10109B9F10D0FE2D12B7839
:1045F000590603D510B13BF81A3023B9013CE4B297
:1046000002E0A342C6D0FF2400213046FFF71DFF81
:104610008246002899D0504603B0BDE8F08FBA42D8
:10462000E0D0F0E724B92846FFF74EFB4045F2D032
:10463000B369DA7AD2079CD403F10B009842EAD02E
:1046400015F8011B13F8012B9142F7D091E74FF0B9
:10465000040AE0E773FD01002DE9F74F0B780746E8
:104660002F2B884601D05C2B01D108F101080024D2
:10467000BC6098F800301F2B00F29080214638462D
:10468000FFF7EAFD7C6103B0BDE8F08F25F8020F6B
:10469000464693E02028A04434BF042400240BEBBA
:1046A0004602002E00F0A98032F8021D202902D017
:1046B0002E2940F0A680013EF3E701313BF811209E
:1046C000202AFAD02E2AF8D009B144F003044A4631
:1046D00032F8020D2E2801D0013EF9D14FF0000A28
:1046E0004FF0080955463BF811004A1C002800F01D
:1046F0009F80202804D02E2806D1B24200F08D8061
:1047000044F003041146EEE7CA4580F08980B242C6
:1047100011D1B9F10B0F06D186E0B24203D044F0BB
:10472000030400F28580AD00EDB232464FF00B0974
:104730004FF0080AE6E77F280DD90021019201F029
:104740003DF9019A18B15D4B184410F8800C80B205
:1047500044F0020438B15A4B13F8011F002900F04D
:104760009F808142F8D15F2044F00304B96901F8C9
:104770000A000AF1010AC5E745F00205F6E75A0703
:1047800081D47A69D37ADB0639D53968538B0978B5
:10479000032904BF928A43EA0243BB6098F80030C1
:1047A00044462F2B08F10108F8D05C2BF6D00026E8
:1047B000D7F81CB004F1FF39ABF1020519F8010F6D
:1047C00006F101081F287FF665AF2F283FF462AF7E
:1047D0005C283FF45FAFB8F1810F0ED0012101F0EA
:1047E000EDF850B17F283FF651AF364911F8012F4F
:1047F000002A3FF44BAF8242F8D1062043E7052060
:1048000041E7002520212BF816500B22B869FFF74D
:1048100054FA0BEB4609294650E7CA45FFF479AF35
:10482000B9F10B0F7FF479AF4FF00B0944F003049B
:10483000BB691A78E52A04BF05221A70B9F1080F7E
:1048400004BFAD00EDB205F00C030C2B03D005F056
:104850000302032A01D144F00204A10709D405F0A0
:104860000305012D08BF44F01004042B08BF44F0D9
:104870000804BB690021DC723846FFF7EDFC10B973
:104880003846FFF759FEBB69DB7A00283FF477AF63
:1048900004287FF4F8AE13F0040F08BF0520F2E6F9
:1048A000A0F1410119297FF667AFA0F16101192933
:1048B0009EBF203845F0010580B257E7F3FC0100A8
:1048C000D2FD0100C9FD01000C222DE9F0438669EB
:1048D00087B0C769044631460DEB0200FFF7D1F9F6
:1048E0009DF81730DB0779D500234FF00109DFF879
:1048F0000882F372E3610B2203A93046FFF7C1F986
:10490000B9F1050F4FD84B46072203F00F0000F115
:104910003001392988BF00F13701013A01A810445C
:104920001B094170F1D17E2006A9114401F8140C35
:104930009A423DD0F15C202938D13344072A8FBFF9
:10494000202106A9891811F8141C98BF013203F818
:10495000011B991B0729F1D900212046FFF77CFC98
:104960000546A8BB2046FFF7E7FD054680BB09F1D9
:104970000109B9F1640FBED10725284607B0BDE88B
:10498000F083102102F0010505EB4303DD0348BF6E
:1049900083EA080301394FEA5202F3D130F8022FBB
:1049A000002AEED1B0E7B81E4B46F7E70133BFE768
:1049B0001346C2E7013616E001261CE00746012136
:1049C0002046FFF742FD0546E8B1042DD4D0D4E7D8
:1049D000042DD2D19DF81730F372E7619DF817309E
:1049E0009B07E9D5002637F81630002BE2D10D23BE
:1049F0001936B6FBF3F600212046FFF72DFC0546DD
:104A00000028E2D1074621692068FFF74FFA0546E2
:104A10000028DAD163691B78E52B01D0002BCDD1BA
:104A20000137BE42CBD1013E49D0E1882046891BE7
:104A3000FFF712FC054600289FD1A069FFF744F953
:104A40004FF6FF790746DFF8B48021692068FFF749
:104A50002DFA0546002890D10F226369D4F81CE096
:104A6000DA720D22F1B24D1E6A4305465F73187368
:104A70005883484518BF3EF8120015F808C005F1E4
:104A8000010518BF013223F80C00002808BF484672
:104A90000D2DEED1484502D03EF812200AB941F062
:104AA000400101221970236800211A712046FFF786
:104AB000CCFC054600287FF460AF013EC5D12169DA
:104AC0002068FFF7F3F9054600287FF456AF20224F
:104AD00029466069FFF7F1F80B22A1696069FFF7C9
:104AE000D0F8A3696269DB7A03F01803137301221B
:104AF00023681A7141E700BF2110010073FD010016
:104B00002DE9F843FF2705463C4604264FF6FF797A
:104B1000DFF8D080296911B9002E58D04CE0286800
:104B2000FFF7C4F90646002846D168690378002BD0
:104B300055D0E52B38D02E2B36D0C27A02F03F026A
:104B4000082A31D00F2A3DD159062BD503F0BF04D6
:104B5000EB88477B2B84437BBB4225D103784FF006
:104B6000010E03F03F035A1E0D2353430022EE694A
:104B700012F80810415ABEF1000F20D07F2B13D835
:104B80008E4626F81310013301320D2AF0D1027837
:104B9000520604D57F2B07D8002226F81320013CAB
:104BA000E4B202E0A342D6D0FF2400212846FFF75A
:104BB0004CFC06460028ADD000232B6108E0494597
:104BC000E2D0F1E73CB9FFF77FF8B84203D1002605
:104BD0003046BDE8F8834FF6FF732B84F8E70426D0
:104BE000EAE700BF73FD0100012970B504460D46D8
:104BF00001D8022070BD83699942FAD2A3699D420F
:104C000005D229462046FFF7D4FA064608B9002007
:104C100070BD0128EDD0411C10D00022294620464D
:104C2000FFF75AFB58B963695A1C05D00133636119
:104C3000637943F0010363713546DFE7012070BDFE
:104C4000F0B585B0019004A840F8041D0091164607
:104C5000FFF749F8051E2ADB174F57F825404CB1DE
:104C6000E06800F0E5FE18B90224204605B0F0BD6A
:104C700000232370019989B9019C47F82540002C35
:104C8000F3D0012E15D16946002201A8FFF74EF995
:104C9000044601460198FFF774FAE6E70023E8B2FC
:104CA00001F80C3B00F0BAFE0028DDD0E4E70B244D
:104CB000DBE70024D9E700BFE4C407202DE9F04377
:104CC000D1B0019190460646002800F08C80002368
:104CD00002F01E02036001A906A8FFF727F90546A6
:104CE000002874D103AB0C9301990FAB06A80D9368
:104CF000FFF7B2FC0B9C10B9002C08BF062018F07F
:104D00001C0F08F01F073DD098B3042802D106A855
:104D1000FFF7DAFD47F0080748BB0B9C38073BD587
:104D2000FEF786FF0023C4F80E000698E372E361E5
:104D30000278B4F81A80032A08BFA28A6383A38288
:104D40004FF0010308BF48EA02480371B8F1000FB1
:104D500022D04146D0F83090FFF746FF38B9069888
:104D600008F1FF3303614946FFF7A0F8A0B10546FB
:104D70002DE0E37A13F0110F33D118F0040FCDD0EA
:104D8000082524E00028F2D1E37AD90627D418F0C8
:104D9000020F01D0DA0724D43B07069B48BF47F037
:104DA00020071A6BB771F26100223462F271197830
:104DB000628B032904BFA18A42EA01423261E2699F
:104DC0003360F2600022DB88B260B261B3802946B2
:104DD0000698FFF7D6F9284651B0BDE8F0830425C0
:104DE000F5E70725F3E70925F5E72DE9F74F9B469A
:104DF0000023CBF80030044689461646FFF7A4F995
:104E0000054610B1294620684AE0E17939B12068A9
:104E1000FFF7B7F9E579284603B0BDE8F08FA3792D
:104E2000D80705D407212068FFF7ABF90725F2E77B
:104E3000E368A768DF1BB74228BF374604F12403A5
:104E400000930FB93946DEE7A268C2F30803002BCE
:104E500074D120688378013B03EA522313F0FF03E7
:104E600011D12AB92069012808D80225E571C9E7BE
:104E700061690193FFF79DF9019BF4E7411C01D1A2
:104E80000125F3E76061D4F800A061695046019301
:104E9000FFF784F9019B30B9022550462946E57198
:104EA000FFF76FF9B7E77E0A00EB030829D09AF8FD
:104EB00002209919914288BFD61AF3B24246494658
:104EC0009AF80100FEF76BF80028D9D1A3795A06A9
:104ED0000BD5A069A0EB0800864206D94FF40072FA
:104EE000009909EB4020FEF7CCFE7602A368B1449E
:104EF0003344A360DBF80030BF1B3344CBF80030F1
:104F00009FE7A269904517D0A3795B060BD50123D3
:104F100000999AF80100FEF75EF80028B0D1A37955
:104F200023F04003A3712068012342460099407892
:104F3000FEF735F80028A3D1C4F81880A1684846C8
:104F4000C1F30801C1F50076BE4228BF3E462431B8
:104F500032462144FEF795FEC8E72DE9F74F9B4600
:104F60000023CBF80030044689469046FFF7ECF862
:104F7000054610B12946206868E0E17939B120681A
:104F8000FFF7FFF8E579284603B0BDE8F08FA37975
:104F9000990705D407212068FFF7F3F80725F2E702
:104FA000A36813EB080F05D204F124030193B8F1B1
:104FB000000F0AD1A368E268934200F2A280A379AD
:104FC000002143F02003A371D5E7A268C2F30803D0
:104FD000002B40F0838020688378013B03EA522352
:104FE00013F0FF03009316D15AB9216921B9FFF7D5
:104FF000DCF901460028DDD0012904D10225E57144
:10500000B8E76169F3E74A1C01D10125F7E7236995
:10501000616103B92161A3795B060CD52068012386
:10502000A26901994078FDF7D6FF0028EDD1A37958
:1050300023F04003A371D4F800A061695046FFF744
:10504000ADF830B9022550462946E571FFF799F8C9
:1050500099E7009B5FEA582600EB03072DD0009AE2
:105060009AF8023032449A4288BF009A494688BF73
:105070009E1AF3B23A469AF80100FDF7ACFF0028F9
:10508000C3D1A169C91B8E420AD94FF4007209EB42
:1050900041210198FEF7F5FDA37923F04003A371A8
:1050A0007602A368B1443344A360DBF80030A8EB78
:1050B00006083344CBF8003079E7A3699F420CD04F
:1050C000A268E3689A4208D201233A4601999AF805
:1050D0000100FDF764FF002897D1A761A068494649
:1050E000C0F30800C0F50076464528BF4646243088
:1050F00032462044FEF7C5FDA37943F04003A37177
:10510000CFE7E3605BE770B50446FFF71DF805469F
:10511000002838D1A3799A0635D55B0613D52068C7
:105120000123A26904F124014078FDF754FF30B156
:1051300001212068FFF725F80125284670BDA379D5
:1051400023F04003A371E1692068FEF7AFFE054636
:10515000C8B9266AF37A43F02003F372E368F36177
:10516000236973831B0CB382FEF762FD7582C6F858
:105170001600A379206823F02003A3710123037193
:10518000FEF75AFE054629462068FEF7FAFFD4E7E7
:1051900038B50546FFF7B7FF044648B92846FEF77D
:1051A000D3FF044620B9286821462C60FEF7E9FFAA
:1051B000204638BDF8B504460E46FEF7C5FF054645
:1051C00010B1294620686AE0E17929B12068FEF72C
:1051D000D8FFE5792846F8BDE368B34204D2A27946
:1051E00012F0020F08BF1E460022A368A260002E24
:1051F00030D1A368E2680021934281BFE360A379C4
:1052000043F02003A371DDE70026A368C3F308037E
:10521000002BEED0A2699642EBD0A37904F12407CB
:1052200013F0400F0BD02068012339464078FDF77A
:10523000D2FE002842D1A37923F04003A371206855
:105240000123324639464078FDF7A9FE002835D1C2
:10525000A661CEE7206887787F021BB3013B721EF0
:10526000B2FBF7F2B3FBF7F18A421BD37A42134049
:105270006169A360F61A0029C6D0BE4223D8A3688C
:105280003344A360C6F30803002BBDD02268104648
:10529000FEF784FF90BB022510462946E571FEF714
:1052A00070FF97E7216961B9FFF77FF80128014690
:1052B00002D10225E57184E7013001D10125F9E72A
:1052C00021616161D7E7A37920689A0705D5FFF7C7
:1052D0006CF8014620B93E46D1E7FEF76AFF014669
:1052E0004B1CEBD00129E4D923689B699942E0D299
:1052F000A36861613B44A360F61BBEE700EB562642
:1053000083E730B5C9B001910546002837D00022A7
:1053100001A903A8FEF70AFE044688B9039B019978
:105320002B6004ABAB6107ABEB612846FFF794F948
:10533000044630BB6B697BB1DA7AD20603D405240C
:1053400000232B6014E003995A8B0978032904BFCA
:105350009B8A42EA0342AA60039B0021DB8828461D
:10536000AB80FEF779FF04280446E8D0002CE7D193
:1053700021460398FEF705FF204649B030BD0924B9
:10538000FAE70428DBD0DBE738B50546FEF7DCFE9C
:10539000044620B9286821462C60FEF7F2FE20461C
:1053A00038BD70B5C4B004460E46FEF7CDFE0546C6
:1053B000E0B92EB901462046FEF74EFF054615E03E
:1053C00003ABC4F818D0E3612046FFF799FB04282B
:1053D00013D1256131462046FEF7A2FC002120466C
:1053E000FFF733F80428E9D1002323612068294618
:1053F000FEF7C7FE284644B070BD0028DED1E9E7BD
:105400002DE9F347144602AB43F8040D88462046C5
:1054100000221946FEF78AFD2468054630B9A769BF
:105420006369BA1E934209D8C8F80030204629465D
:10543000FEF7A7FE284602B0BDE8F08794F800907A
:10544000B9F1010F17D10227064639462046FEF76B
:10545000B0FE431C32D0012832D000B90136A36916
:1054600001379F42F1D36379666143F001036371B1
:10547000C8F80060DAE7034602460646616A52B998
:10548000204601F1010AFEF711FDD8B951464FF44B
:10549000007204F13403B9F1020F07D1188800B982
:1054A00001360233023A013FE9D1DCE71868043AD9
:1054B00030F0704008BF01360433F4E70125D2E72D
:1054C0000225D0E70546CEE72DE9F04F89B008ABBD
:1054D00043F80C0D18460E461546FEF704FC00284E
:1054E000C0F2F781012E00F2F6816B1E2B40029371
:1054F00040F0F181504B53F82040002C00F0ED813A
:105500009DF80830C7B223703846FDF72DFDC2075D
:1055100000F1E581430700F1E48107AA0121384643
:10552000FDF775FD18B1012009B0BDE8F08F0799AE
:105530007F29F8D9002E14BF4FF0000A4FF03F0A20
:10554000A1EB0A0107915DB94FF4FA63B1FBF3F3E4
:105550003A4830F81520934218D3394B33F8155098
:105560006D0A15D0802D28BF8025B1FBF5F340F6DC
:10557000F572934240F2F8814FF6F572934200F2D1
:10558000B28102335B004FF00208F4E10135E0E73D
:105590000125EAE706AA03213846FDF738FD20B9C0
:1055A000069B013BB3F5004F01D301230693069AF6
:1055B000B8F1030F02F1FF334B44C2F1000203EADA
:1055C0000203A3EB0903069322D1019A9B441A44D8
:1055D0000192079A0099A2EB0B035B1A0399B8F1A9
:1055E000020FA3EB0103B3FBF5F3049314D140F6D0
:1055F000F5730499994240F2D581B2F5803F34BFEA
:105600004FF004094FF006094EB34FF0F0095DE08A
:10561000009A1A440092DCE7B8F1030F12D14FF65A
:10562000F573049A9A4240F2BD81002E40F06781E2
:105630004FF00C0913E000BFE4C40720DAFD0100BD
:1056400080FD0100B8F1010FD7D1B2F5803F34BF22
:105650004FF001094FF00609002E40F06B8104F174
:1056600034064FF4007200213046FEF726FBFE217F
:1056700043F6C160DDF81CE084F8F7110AEB0E0177
:10568000B1FBF0F18808069184F8F9113F2101235C
:105690000022C4F8FA114AF6552140F03F0084F880
:1056A000F801A4F8321284F8F33184F8F43184F864
:1056B000F52184F8F691C4F8FEE131463846FDF74D
:1056C0008AFC00287FF42FAF4FF0F80904F134066C
:1056D0004FF4007200213046FEF7EFFA0B22B24978
:1056E0003046FEF7CEFA4FF40073A4F83F300123A2
:1056F000B8F1030F84F84430029B18BF4FF40073D5
:1057000084F84150A4F842B00293BDF8083084F800
:105710004990A4F84530079BC4F850A0B3F5803FEA
:1057200034BFA4F8473063653F23A4F84C30FF230F
:10573000A4F84E30FEF77CFAB8F1030F069040F063
:105740009C80009B1322A365022323660123A4F8F7
:1057500064300623A4F86630802384F8743029234B
:105760009249C4F8770084F8763004F17B00FEF7A4
:1057700088FA4AF655235246A4F8323231460123BC
:105780003846FDF728FC00287FF4CDAEB8F1030FB2
:1057900006D101230AF1060231463846FDF71BFC0B
:1057A0004FF4007200213046FEF787FAB8F1030F7C
:1057B00074D0B8F1010F7E4B18BF6FF0FF0343EABE
:1057C000090306936363019B314603F10109019AC2
:1057D00001233846FDF7FFFB014600287FF4A3AE06
:1057E0004FF400723046FEF768FA01230693069BD9
:1057F000009A9A425DD8039B4A46B8F1030F18BF3E
:105800001D464D4401233146384602F1010BFDF798
:10581000E2FB00287FF487AEAB455A46F2D1B8F1DF
:10582000030F21D1634B3146636303F1FF5303F54B
:1058300000532033C4F81832049B3846013BC4F8A7
:105840001C320223C4F820324AF65523A4F832321F
:1058500001230AEB0302FDF7BEFB01230AF1070255
:1058600031463846FDF7B7FB002238461146FDF7B2
:10587000CEFB003018BF012056E6BDF80030C4F85A
:105880005B00A4F84A30802384F85830292313227F
:1058900084F85A30484904F15F0068E769F0FF0373
:1058A000069363634FF0FF33A3636FF07043E363CA
:1058B00089E701234A463146384609F1010BFDF7D5
:1058C0008AFB00287FF42FAE069BD946013306934E
:1058D0008DE70B2028E6132026E60C2024E6032083
:1058E00022E60A2020E69B0003F207235B0A0093CE
:1058F00000234FF0030803934FF0200B43E004F123
:1059000034064FF4007200213046FEF7D6F90B2220
:1059100025493046FEF7B5F94FF40073A4F83F303F
:10592000012384F84150A4F842B084F844304FF089
:10593000F009EAE604F134064FF400720021304623
:10594000FEF7BBF90B2218493046FEF79AF94FF4DF
:10595000007384F84150A4F83F30A4F842B084F8B2
:1059600044804FF0F009CFE64FF0010803EB43030A
:1059700001335B08033303F2FF135B0A0093202318
:105980004FF0010B03930BEB0A030193039A009B67
:1059900003EB0209019B9944A5EB0A034B4499428E
:1059A000BFF4F8AD0E20BFE596FD0100A2FD010099
:1059B00000FFFF0052526141B6FD01007F2810B583
:1059C00016D931B1FF2812D80A4B803833F81000AD
:1059D00010BD084A32F811408BB2844203D0013125
:1059E0008029F7D10B4603F18000C0B210BD002022
:1059F00010BD00BFF0FD01000023064931F813205F
:105A000022B1824203D1044A32F8130070470133B5
:105A1000F4E700BFF0FE0100D000020010B5012045
:105A20000C46FBF781FA2060003018BF012010BD42
:105A30000120704710B50446FBF73AFF02280AD14F
:105A400000234FF0FF3219462046FBF7F3FA431EBE
:105A50005842584110BD012010BD10B50446FBF757
:105A600027FF022807D100232046BDE810401A4630
:105A70001946FBF7D7B910BD13460A4601790068ED
:105A8000FCF7A1B81FB5002204AB23F8042D0222B5
:105A90000479009200680A462146FCF77DF89DF8DB
:105AA0000C009DF80D3043EA002004B010BD10B585
:105AB000044619222A21FFF7DFFF0D2221792068F1
:105AC000FCF756F8A0F12A035842584110BDFFFFD9
:105AD000044A13881F2BDFBF581C1080024A42F86B
